{
  "_format": "hh-sol-artifact-1",
  "contractName": "QuizGame",
  "sourceName": "contracts/QuizGame.sol",
  "abi": [
    {
      "inputs": [
        {
          "internalType": "string",
          "name": "_question",
          "type": "string"
        },
        {
          "internalType": "string",
          "name": "_answer",
          "type": "string"
        }
      ],
      "stateMutability": "payable",
      "type": "constructor"
    },
    {
      "anonymous": false,
      "inputs": [
        {
          "indexed": false,
          "internalType": "address",
          "name": "sender",
          "type": "address"
        },
        {
          "indexed": false,
          "internalType": "string",
          "name": "answer",
          "type": "string"
        }
      ],
      "name": "AnswerGuessed",
      "type": "event"
    },
    {
      "anonymous": false,
      "inputs": [
        {
          "indexed": false,
          "internalType": "string",
          "name": "method",
          "type": "string"
        },
        {
          "indexed": false,
          "internalType": "address",
          "name": "sender",
          "type": "address"
        },
        {
          "indexed": false,
          "internalType": "uint256",
          "name": "amount",
          "type": "uint256"
        }
      ],
      "name": "QuizContractFunded",
      "type": "event"
    },
    {
      "stateMutability": "payable",
      "type": "fallback"
    },
    {
      "inputs": [],
      "name": "getBalance",
      "outputs": [
        {
          "internalType": "uint256",
          "name": "",
          "type": "uint256"
        }
      ],
      "stateMutability": "view",
      "type": "function"
    },
    {
      "inputs": [
        {
          "internalType": "string",
          "name": "_answer",
          "type": "string"
        }
      ],
      "name": "guess",
      "outputs": [],
      "stateMutability": "nonpayable",
      "type": "function"
    },
    {
      "inputs": [],
      "name": "question",
      "outputs": [
        {
          "internalType": "string",
          "name": "",
          "type": "string"
        }
      ],
      "stateMutability": "view",
      "type": "function"
    },
    {
      "stateMutability": "payable",
      "type": "receive"
    }
  ],
  "bytecode": "0x608060405260405162000f0b38038062000f0b8339818101604052810190620000299190620001e8565b81600090816200003a9190620004b8565b5080600190816200004c9190620004b8565b5050506200059f565b6000604051905090565b600080fd5b600080fd5b600080fd5b600080fd5b6000601f19601f8301169050919050565b7f4e487b7100000000000000000000000000000000000000000000000000000000600052604160045260246000fd5b620000be8262000073565b810181811067ffffffffffffffff82111715620000e057620000df62000084565b5b80604052505050565b6000620000f562000055565b9050620001038282620000b3565b919050565b600067ffffffffffffffff82111562000126576200012562000084565b5b620001318262000073565b9050602081019050919050565b60005b838110156200015e57808201518184015260208101905062000141565b60008484015250505050565b6000620001816200017b8462000108565b620000e9565b905082815260208101848484011115620001a0576200019f6200006e565b5b620001ad8482856200013e565b509392505050565b600082601f830112620001cd57620001cc62000069565b5b8151620001df8482602086016200016a565b91505092915050565b600080604083850312156200020257620002016200005f565b5b600083015167ffffffffffffffff81111562000223576200022262000064565b5b6200023185828601620001b5565b925050602083015167ffffffffffffffff81111562000255576200025462000064565b5b6200026385828601620001b5565b9150509250929050565b600081519050919050565b7f4e487b7100000000000000000000000000000000000000000000000000000000600052602260045260246000fd5b60006002820490506001821680620002c057607f821691505b602082108103620002d657620002d562000278565b5b50919050565b60008190508160005260206000209050919050565b60006020601f8301049050919050565b600082821b905092915050565b600060088302620003407fffffffffffffffffffffffffffffffffffffffffffffffffffffffffffffffff8262000301565b6200034c868362000301565b95508019841693508086168417925050509392505050565b6000819050919050565b6000819050919050565b600062000399620003936200038d8462000364565b6200036e565b62000364565b9050919050565b6000819050919050565b620003b58362000378565b620003cd620003c482620003a0565b8484546200030e565b825550505050565b600090565b620003e4620003d5565b620003f1818484620003aa565b505050565b5b8181101562000419576200040d600082620003da565b600181019050620003f7565b5050565b601f82111562000468576200043281620002dc565b6200043d84620002f1565b810160208510156200044d578190505b620004656200045c85620002f1565b830182620003f6565b50505b505050565b600082821c905092915050565b60006200048d600019846008026200046d565b1980831691505092915050565b6000620004a883836200047a565b9150826002028217905092915050565b620004c3826200026d565b67ffffffffffffffff811115620004df57620004de62000084565b5b620004eb8254620002a7565b620004f88282856200041d565b600060209050601f8311600181146200053057600084156200051b578287015190505b6200052785826200049a565b86555062000597565b601f1984166200054086620002dc565b60005b828110156200056a5784890151825560018201915060208501945060208101905062000543565b868310156200058a578489015162000586601f8916826200047a565b8355505b6001600288020188555050505b505050505050565b61095c80620005af6000396000f3fe6080604052600436106100385760003560e01c806312065fe0146100b35780633fad9ae0146100de5780634eee59b31461010957610078565b36610078577f1320571dd2742bd766350769bdb70b09e9c4c6036dc64925c181995509fe5132333460405161006e929190610406565b60405180910390a1005b7f1320571dd2742bd766350769bdb70b09e9c4c6036dc64925c181995509fe513233346040516100a992919061048e565b60405180910390a1005b3480156100bf57600080fd5b506100c8610132565b6040516100d591906104ca565b60405180910390f35b3480156100ea57600080fd5b506100f361013a565b6040516101009190610564565b60405180910390f35b34801561011557600080fd5b50610130600480360381019061012b91906105f5565b6101c8565b005b600047905090565b6000805461014790610671565b80601f016020809104026020016040519081016040528092919081815260200182805461017390610671565b80156101c05780601f10610195576101008083540402835291602001916101c0565b820191906000526020600020905b8154815290600101906020018083116101a357829003601f168201915b505050505081565b60016040516020016101da9190610745565b604051602081830303815290604052805190602001208282604051602001610203929190610790565b6040516020818303038152906040528051906020012014610259576040517f08c379a0000000000000000000000000000000000000000000000000000000008152600401610250906107f5565b60405180910390fd5b600047111561034b577f90d05bf984d52bda11bbcecdb3f4da999b4257ea19613e6524ad74f8859113d833838360405161029593929190610842565b60405180910390a160003373ffffffffffffffffffffffffffffffffffffffff16476040516102c3906108a5565b60006040518083038185875af1925050503d8060008114610300576040519150601f19603f3d011682016040523d82523d6000602084013e610305565b606091505b5050905080610349576040517f08c379a000000000000000000000000000000000000000000000000000000000815260040161034090610906565b60405180910390fd5b505b5050565b600082825260208201905092915050565b7f7265636569766500000000000000000000000000000000000000000000000000600082015250565b600061039660078361034f565b91506103a182610360565b602082019050919050565b600073ffffffffffffffffffffffffffffffffffffffff82169050919050565b60006103d7826103ac565b9050919050565b6103e7816103cc565b82525050565b6000819050919050565b610400816103ed565b82525050565b6000606082019050818103600083015261041f81610389565b905061042e60208301856103de565b61043b60408301846103f7565b9392505050565b7f66616c6c6261636b000000000000000000000000000000000000000000000000600082015250565b600061047860088361034f565b915061048382610442565b602082019050919050565b600060608201905081810360008301526104a78161046b565b90506104b660208301856103de565b6104c360408301846103f7565b9392505050565b60006020820190506104df60008301846103f7565b92915050565b600081519050919050565b60005b8381101561050e5780820151818401526020810190506104f3565b60008484015250505050565b6000601f19601f8301169050919050565b6000610536826104e5565b610540818561034f565b93506105508185602086016104f0565b6105598161051a565b840191505092915050565b6000602082019050818103600083015261057e818461052b565b905092915050565b600080fd5b600080fd5b600080fd5b600080fd5b600080fd5b60008083601f8401126105b5576105b4610590565b5b8235905067ffffffffffffffff8111156105d2576105d1610595565b5b6020830191508360018202830111156105ee576105ed61059a565b5b9250929050565b6000806020838503121561060c5761060b610586565b5b600083013567ffffffffffffffff81111561062a5761062961058b565b5b6106368582860161059f565b92509250509250929050565b7f4e487b7100000000000000000000000000000000000000000000000000000000600052602260045260246000fd5b6000600282049050600182168061068957607f821691505b60208210810361069c5761069b610642565b5b50919050565b600081905092915050565b60008190508160005260206000209050919050565b600081546106cf81610671565b6106d981866106a2565b945060018216600081146106f457600181146107095761073c565b60ff198316865281151582028601935061073c565b610712856106ad565b60005b8381101561073457815481890152600182019150602081019050610715565b838801955050505b50505092915050565b600061075182846106c2565b915081905092915050565b82818337600083830152505050565b600061077783856106a2565b935061078483858461075c565b82840190509392505050565b600061079d82848661076b565b91508190509392505050565b7f496e636f727265637420616e7377657200000000000000000000000000000000600082015250565b60006107df60108361034f565b91506107ea826107a9565b602082019050919050565b6000602082019050818103600083015261080e816107d2565b9050919050565b6000610821838561034f565b935061082e83858461075c565b6108378361051a565b840190509392505050565b600060408201905061085760008301866103de565b818103602083015261086a818486610815565b9050949350505050565b600081905092915050565b50565b600061088f600083610874565b915061089a8261087f565b600082019050919050565b60006108b082610882565b9150819050919050565b7f4661696c656420746f2073656e64204574686572000000000000000000000000600082015250565b60006108f060148361034f565b91506108fb826108ba565b602082019050919050565b6000602082019050818103600083015261091f816108e3565b905091905056fea2646970667358221220a07c11a13b4ccd4e556dcb57dadc4a9f5b306ed1fe5aaf90ce2f9b4d4165368764736f6c63430008180033",
  "linkReferences": {},
  "deployedLinkReferences": {}
}