{
  "_format": "hh-sol-artifact-1",
  "contractName": "QuizGame",
  "sourceName": "contracts/QuizGame.sol",
  "abi": [
    {
      "inputs": [
        {
          "internalType": "string",
          "name": "_question",
          "type": "string"
        },
        {
          "internalType": "bytes32",
          "name": "_hashedAnswer",
          "type": "bytes32"
        }
      ],
      "stateMutability": "payable",
      "type": "constructor"
    },
    {
      "stateMutability": "payable",
      "type": "fallback"
    },
    {
      "inputs": [],
      "name": "getBalance",
      "outputs": [
        {
          "internalType": "uint256",
          "name": "",
          "type": "uint256"
        }
      ],
      "stateMutability": "view",
      "type": "function"
    },
    {
      "inputs": [
        {
          "internalType": "string",
          "name": "_answer",
          "type": "string"
        }
      ],
      "name": "guess",
      "outputs": [],
      "stateMutability": "nonpayable",
      "type": "function"
    },
    {
      "inputs": [],
      "name": "question",
      "outputs": [
        {
          "internalType": "string",
          "name": "",
          "type": "string"
        }
      ],
      "stateMutability": "view",
      "type": "function"
    },
    {
      "stateMutability": "payable",
      "type": "receive"
    }
  ],
  "bytecode": "0x60806040526040518060400160405280600581526020017f3078313233000000000000000000000000000000000000000000000000000000815250600290816200004a91906200030b565b5060405162000d1938038062000d19833981810160405281019062000070919062000591565b81600090816200008191906200030b565b50806001819055505050620005f7565b600081519050919050565b7f4e487b7100000000000000000000000000000000000000000000000000000000600052604160045260246000fd5b7f4e487b7100000000000000000000000000000000000000000000000000000000600052602260045260246000fd5b600060028204905060018216806200011357607f821691505b602082108103620001295762000128620000cb565b5b50919050565b60008190508160005260206000209050919050565b60006020601f8301049050919050565b600082821b905092915050565b600060088302620001937fffffffffffffffffffffffffffffffffffffffffffffffffffffffffffffffff8262000154565b6200019f868362000154565b95508019841693508086168417925050509392505050565b6000819050919050565b6000819050919050565b6000620001ec620001e6620001e084620001b7565b620001c1565b620001b7565b9050919050565b6000819050919050565b6200020883620001cb565b620002206200021782620001f3565b84845462000161565b825550505050565b600090565b6200023762000228565b62000244818484620001fd565b505050565b5b818110156200026c57620002606000826200022d565b6001810190506200024a565b5050565b601f821115620002bb5762000285816200012f565b620002908462000144565b81016020851015620002a0578190505b620002b8620002af8562000144565b83018262000249565b50505b505050565b600082821c905092915050565b6000620002e060001984600802620002c0565b1980831691505092915050565b6000620002fb8383620002cd565b9150826002028217905092915050565b620003168262000091565b67ffffffffffffffff8111156200033257620003316200009c565b5b6200033e8254620000fa565b6200034b82828562000270565b600060209050601f8311600181146200038357600084156200036e578287015190505b6200037a8582620002ed565b865550620003ea565b601f19841662000393866200012f565b60005b82811015620003bd5784890151825560018201915060208501945060208101905062000396565b86831015620003dd5784890151620003d9601f891682620002cd565b8355505b6001600288020188555050505b505050505050565b6000604051905090565b600080fd5b600080fd5b600080fd5b600080fd5b6000601f19601f8301169050919050565b6200042c8262000410565b810181811067ffffffffffffffff821117156200044e576200044d6200009c565b5b80604052505050565b600062000463620003f2565b905062000471828262000421565b919050565b600067ffffffffffffffff8211156200049457620004936200009c565b5b6200049f8262000410565b9050602081019050919050565b60005b83811015620004cc578082015181840152602081019050620004af565b60008484015250505050565b6000620004ef620004e98462000476565b62000457565b9050828152602081018484840111156200050e576200050d6200040b565b5b6200051b848285620004ac565b509392505050565b600082601f8301126200053b576200053a62000406565b5b81516200054d848260208601620004d8565b91505092915050565b6000819050919050565b6200056b8162000556565b81146200057757600080fd5b50565b6000815190506200058b8162000560565b92915050565b60008060408385031215620005ab57620005aa620003fc565b5b600083015167ffffffffffffffff811115620005cc57620005cb62000401565b5b620005da8582860162000523565b9250506020620005ed858286016200057a565b9150509250929050565b61071280620006076000396000f3fe6080604052600436106100385760003560e01c806312065fe0146100415780633fad9ae01461006c5780634eee59b3146100975761003f565b3661003f57005b005b34801561004d57600080fd5b506100566100c0565b60405161006391906102a9565b60405180910390f35b34801561007857600080fd5b506100816100c8565b60405161008e9190610354565b60405180910390f35b3480156100a357600080fd5b506100be60048036038101906100b991906103e5565b610156565b005b600047905090565b600080546100d590610461565b80601f016020809104026020016040519081016040528092919081815260200182805461010190610461565b801561014e5780601f106101235761010080835404028352916020019161014e565b820191906000526020600020905b81548152906001019060200180831161013157829003601f168201915b505050505081565b6001548282600260405160200161016f93929190610569565b60405160208183030381529060405280519060200120146101c5576040517f08c379a00000000000000000000000000000000000000000000000000000000081526004016101bc906105db565b60405180910390fd5b60004703610208576040517f08c379a00000000000000000000000000000000000000000000000000000000081526004016101ff90610647565b60405180910390fd5b6000471061028c5760003373ffffffffffffffffffffffffffffffffffffffff164760405161023690610698565b60006040518083038185875af1925050503d8060008114610273576040519150601f19603f3d011682016040523d82523d6000602084013e610278565b606091505b505090508061028a576102896106ad565b5b505b5050565b6000819050919050565b6102a381610290565b82525050565b60006020820190506102be600083018461029a565b92915050565b600081519050919050565b600082825260208201905092915050565b60005b838110156102fe5780820151818401526020810190506102e3565b60008484015250505050565b6000601f19601f8301169050919050565b6000610326826102c4565b61033081856102cf565b93506103408185602086016102e0565b6103498161030a565b840191505092915050565b6000602082019050818103600083015261036e818461031b565b905092915050565b600080fd5b600080fd5b600080fd5b600080fd5b600080fd5b60008083601f8401126103a5576103a4610380565b5b8235905067ffffffffffffffff8111156103c2576103c1610385565b5b6020830191508360018202830111156103de576103dd61038a565b5b9250929050565b600080602083850312156103fc576103fb610376565b5b600083013567ffffffffffffffff81111561041a5761041961037b565b5b6104268582860161038f565b92509250509250929050565b7f4e487b7100000000000000000000000000000000000000000000000000000000600052602260045260246000fd5b6000600282049050600182168061047957607f821691505b60208210810361048c5761048b610432565b5b50919050565b600081905092915050565b82818337600083830152505050565b60006104b88385610492565b93506104c583858461049d565b82840190509392505050565b60008190508160005260206000209050919050565b600081546104f381610461565b6104fd8186610492565b94506001821660008114610518576001811461052d57610560565b60ff1983168652811515820286019350610560565b610536856104d1565b60005b8381101561055857815481890152600182019150602081019050610539565b838801955050505b50505092915050565b60006105768285876104ac565b915061058282846104e6565b9150819050949350505050565b7f496e636f727265637420616e7377657200000000000000000000000000000000600082015250565b60006105c56010836102cf565b91506105d08261058f565b602082019050919050565b600060208201905081810360008301526105f4816105b8565b9050919050565b7f4e6f2062616c616e6365206c6566740000000000000000000000000000000000600082015250565b6000610631600f836102cf565b915061063c826105fb565b602082019050919050565b6000602082019050818103600083015261066081610624565b9050919050565b600081905092915050565b50565b6000610682600083610667565b915061068d82610672565b600082019050919050565b60006106a382610675565b9150819050919050565b7f4e487b7100000000000000000000000000000000000000000000000000000000600052600160045260246000fdfea26469706673582212202d2536c6223139c40ddcbcc2fc9fee68eaba379894451733591b8e0763aef47764736f6c63430008180033",
  "linkReferences": {},
  "deployedLinkReferences": {}
}